{
    "_format": "hh-sol-artifact-1",
    "contractName": "NFTCollectible",
    "sourceName": "contracts/NFTCollectible.sol",
    "abi": [
        {
            "inputs": [
                {
                    "internalType": "string",
                    "name": "baseURI",
                    "type": "string"
                }
            ],
            "stateMutability": "nonpayable",
            "type": "constructor"
        },
        {
            "anonymous": false,
            "inputs": [
                {
                    "indexed": true,
                    "internalType": "address",
                    "name": "owner",
                    "type": "address"
                },
                {
                    "indexed": true,
                    "internalType": "address",
                    "name": "approved",
                    "type": "address"
                },
                {
                    "indexed": true,
                    "internalType": "uint256",
                    "name": "tokenId",
                    "type": "uint256"
                }
            ],
            "name": "Approval",
            "type": "event"
        },
        {
            "anonymous": false,
            "inputs": [
                {
                    "indexed": true,
                    "internalType": "address",
                    "name": "owner",
                    "type": "address"
                },
                {
                    "indexed": true,
                    "internalType": "address",
                    "name": "operator",
                    "type": "address"
                },
                {
                    "indexed": false,
                    "internalType": "bool",
                    "name": "approved",
                    "type": "bool"
                }
            ],
            "name": "ApprovalForAll",
            "type": "event"
        },
        {
            "anonymous": false,
            "inputs": [
                {
                    "indexed": true,
                    "internalType": "address",
                    "name": "previousOwner",
                    "type": "address"
                },
                {
                    "indexed": true,
                    "internalType": "address",
                    "name": "newOwner",
                    "type": "address"
                }
            ],
            "name": "OwnershipTransferred",
            "type": "event"
        },
        {
            "anonymous": false,
            "inputs": [
                {
                    "indexed": true,
                    "internalType": "address",
                    "name": "from",
                    "type": "address"
                },
                {
                    "indexed": true,
                    "internalType": "address",
                    "name": "to",
                    "type": "address"
                },
                {
                    "indexed": true,
                    "internalType": "uint256",
                    "name": "tokenId",
                    "type": "uint256"
                }
            ],
            "name": "Transfer",
            "type": "event"
        },
        {
            "inputs": [],
            "name": "MAX_PER_MINT",
            "outputs": [
                {
                    "internalType": "uint256",
                    "name": "",
                    "type": "uint256"
                }
            ],
            "stateMutability": "view",
            "type": "function"
        },
        {
            "inputs": [],
            "name": "MAX_SUPPLY",
            "outputs": [
                {
                    "internalType": "uint256",
                    "name": "",
                    "type": "uint256"
                }
            ],
            "stateMutability": "view",
            "type": "function"
        },
        {
            "inputs": [],
            "name": "PRICE",
            "outputs": [
                {
                    "internalType": "uint256",
                    "name": "",
                    "type": "uint256"
                }
            ],
            "stateMutability": "view",
            "type": "function"
        },
        {
            "inputs": [
                {
                    "internalType": "uint256",
                    "name": "_tokenId",
                    "type": "uint256"
                }
            ],
            "name": "_incrementTokenLevel",
            "outputs": [],
            "stateMutability": "nonpayable",
            "type": "function"
        },
        {
            "inputs": [
                {
                    "internalType": "address",
                    "name": "to",
                    "type": "address"
                },
                {
                    "internalType": "uint256",
                    "name": "tokenId",
                    "type": "uint256"
                }
            ],
            "name": "approve",
            "outputs": [],
            "stateMutability": "nonpayable",
            "type": "function"
        },
        {
            "inputs": [
                {
                    "internalType": "address",
                    "name": "owner",
                    "type": "address"
                }
            ],
            "name": "balanceOf",
            "outputs": [
                {
                    "internalType": "uint256",
                    "name": "",
                    "type": "uint256"
                }
            ],
            "stateMutability": "view",
            "type": "function"
        },
        {
            "inputs": [],
            "name": "baseTokenURI",
            "outputs": [
                {
                    "internalType": "string",
                    "name": "",
                    "type": "string"
                }
            ],
            "stateMutability": "view",
            "type": "function"
        },
        {
            "inputs": [
                {
                    "internalType": "uint256",
                    "name": "tokenId",
                    "type": "uint256"
                }
            ],
            "name": "getApproved",
            "outputs": [
                {
                    "internalType": "address",
                    "name": "",
                    "type": "address"
                }
            ],
            "stateMutability": "view",
            "type": "function"
        },
        {
            "inputs": [
                {
                    "internalType": "address",
                    "name": "owner",
                    "type": "address"
                },
                {
                    "internalType": "address",
                    "name": "operator",
                    "type": "address"
                }
            ],
            "name": "isApprovedForAll",
            "outputs": [
                {
                    "internalType": "bool",
                    "name": "",
                    "type": "bool"
                }
            ],
            "stateMutability": "view",
            "type": "function"
        },
        {
            "inputs": [
                {
                    "internalType": "uint256",
                    "name": "",
                    "type": "uint256"
                }
            ],
            "name": "levels",
            "outputs": [
                {
                    "internalType": "uint8",
                    "name": "",
                    "type": "uint8"
                }
            ],
            "stateMutability": "view",
            "type": "function"
        },
        {
            "inputs": [
                {
                    "internalType": "uint256",
                    "name": "_count",
                    "type": "uint256"
                }
            ],
            "name": "mintNFTs",
            "outputs": [],
            "stateMutability": "payable",
            "type": "function"
        },
        {
            "inputs": [],
            "name": "name",
            "outputs": [
                {
                    "internalType": "string",
                    "name": "",
                    "type": "string"
                }
            ],
            "stateMutability": "view",
            "type": "function"
        },
        {
            "inputs": [],
            "name": "owner",
            "outputs": [
                {
                    "internalType": "address",
                    "name": "",
                    "type": "address"
                }
            ],
            "stateMutability": "view",
            "type": "function"
        },
        {
            "inputs": [
                {
                    "internalType": "uint256",
                    "name": "tokenId",
                    "type": "uint256"
                }
            ],
            "name": "ownerOf",
            "outputs": [
                {
                    "internalType": "address",
                    "name": "",
                    "type": "address"
                }
            ],
            "stateMutability": "view",
            "type": "function"
        },
        {
            "inputs": [],
            "name": "renounceOwnership",
            "outputs": [],
            "stateMutability": "nonpayable",
            "type": "function"
        },
        {
            "inputs": [],
            "name": "reserveNFTs",
            "outputs": [],
            "stateMutability": "nonpayable",
            "type": "function"
        },
        {
            "inputs": [
                {
                    "internalType": "address",
                    "name": "from",
                    "type": "address"
                },
                {
                    "internalType": "address",
                    "name": "to",
                    "type": "address"
                },
                {
                    "internalType": "uint256",
                    "name": "tokenId",
                    "type": "uint256"
                }
            ],
            "name": "safeTransferFrom",
            "outputs": [],
            "stateMutability": "nonpayable",
            "type": "function"
        },
        {
            "inputs": [
                {
                    "internalType": "address",
                    "name": "from",
                    "type": "address"
                },
                {
                    "internalType": "address",
                    "name": "to",
                    "type": "address"
                },
                {
                    "internalType": "uint256",
                    "name": "tokenId",
                    "type": "uint256"
                },
                {
                    "internalType": "bytes",
                    "name": "_data",
                    "type": "bytes"
                }
            ],
            "name": "safeTransferFrom",
            "outputs": [],
            "stateMutability": "nonpayable",
            "type": "function"
        },
        {
            "inputs": [
                {
                    "internalType": "address",
                    "name": "operator",
                    "type": "address"
                },
                {
                    "internalType": "bool",
                    "name": "approved",
                    "type": "bool"
                }
            ],
            "name": "setApprovalForAll",
            "outputs": [],
            "stateMutability": "nonpayable",
            "type": "function"
        },
        {
            "inputs": [
                {
                    "internalType": "string",
                    "name": "_baseTokenURI",
                    "type": "string"
                }
            ],
            "name": "setBaseURI",
            "outputs": [],
            "stateMutability": "nonpayable",
            "type": "function"
        },
        {
            "inputs": [
                {
                    "internalType": "bytes4",
                    "name": "interfaceId",
                    "type": "bytes4"
                }
            ],
            "name": "supportsInterface",
            "outputs": [
                {
                    "internalType": "bool",
                    "name": "",
                    "type": "bool"
                }
            ],
            "stateMutability": "view",
            "type": "function"
        },
        {
            "inputs": [],
            "name": "symbol",
            "outputs": [
                {
                    "internalType": "string",
                    "name": "",
                    "type": "string"
                }
            ],
            "stateMutability": "view",
            "type": "function"
        },
        {
            "inputs": [
                {
                    "internalType": "uint256",
                    "name": "index",
                    "type": "uint256"
                }
            ],
            "name": "tokenByIndex",
            "outputs": [
                {
                    "internalType": "uint256",
                    "name": "",
                    "type": "uint256"
                }
            ],
            "stateMutability": "view",
            "type": "function"
        },
        {
            "inputs": [
                {
                    "internalType": "address",
                    "name": "owner",
                    "type": "address"
                },
                {
                    "internalType": "uint256",
                    "name": "index",
                    "type": "uint256"
                }
            ],
            "name": "tokenOfOwnerByIndex",
            "outputs": [
                {
                    "internalType": "uint256",
                    "name": "",
                    "type": "uint256"
                }
            ],
            "stateMutability": "view",
            "type": "function"
        },
        {
            "inputs": [
                {
                    "internalType": "uint256",
                    "name": "tokenId",
                    "type": "uint256"
                }
            ],
            "name": "tokenURI",
            "outputs": [
                {
                    "internalType": "string",
                    "name": "",
                    "type": "string"
                }
            ],
            "stateMutability": "view",
            "type": "function"
        },
        {
            "inputs": [
                {
                    "internalType": "address",
                    "name": "_owner",
                    "type": "address"
                }
            ],
            "name": "tokensOfOwner",
            "outputs": [
                {
                    "internalType": "uint256[]",
                    "name": "",
                    "type": "uint256[]"
                }
            ],
            "stateMutability": "view",
            "type": "function"
        },
        {
            "inputs": [],
            "name": "totalSupply",
            "outputs": [
                {
                    "internalType": "uint256",
                    "name": "",
                    "type": "uint256"
                }
            ],
            "stateMutability": "view",
            "type": "function"
        },
        {
            "inputs": [
                {
                    "internalType": "address",
                    "name": "from",
                    "type": "address"
                },
                {
                    "internalType": "address",
                    "name": "to",
                    "type": "address"
                },
                {
                    "internalType": "uint256",
                    "name": "tokenId",
                    "type": "uint256"
                }
            ],
            "name": "transferFrom",
            "outputs": [],
            "stateMutability": "nonpayable",
            "type": "function"
        },
        {
            "inputs": [
                {
                    "internalType": "address",
                    "name": "newOwner",
                    "type": "address"
                }
            ],
            "name": "transferOwnership",
            "outputs": [],
            "stateMutability": "nonpayable",
            "type": "function"
        },
        {
            "inputs": [],
            "name": "withdraw",
            "outputs": [],
            "stateMutability": "payable",
            "type": "function"
        }
    ],
    "bytecode": "0x60806040523480156200001157600080fd5b5060405162004ac638038062004ac68339818101604052810190620000379190620003d4565b6040518060400160405280600c81526020017f4661742043617473204e465400000000000000000000000000000000000000008152506040518060400160405280600581526020017f46434e46540000000000000000000000000000000000000000000000000000008152508160009080519060200190620000bb929190620002b2565b508060019080519060200190620000d4929190620002b2565b505050620000f7620000eb6200010f60201b60201c565b6200011760201b60201c565b6200010881620001dd60201b60201c565b506200060c565b600033905090565b6000600a60009054906101000a900473ffffffffffffffffffffffffffffffffffffffff16905081600a60006101000a81548173ffffffffffffffffffffffffffffffffffffffff021916908373ffffffffffffffffffffffffffffffffffffffff1602179055508173ffffffffffffffffffffffffffffffffffffffff168173ffffffffffffffffffffffffffffffffffffffff167f8be0079c531659141344cd1fd0a4f28419497f9722a3daafe3b4186f6b6457e060405160405180910390a35050565b620001ed6200010f60201b60201c565b73ffffffffffffffffffffffffffffffffffffffff16620002136200028860201b60201c565b73ffffffffffffffffffffffffffffffffffffffff16146200026c576040517f08c379a0000000000000000000000000000000000000000000000000000000008152600401620002639062000440565b60405180910390fd5b80600c908051906020019062000284929190620002b2565b5050565b6000600a60009054906101000a900473ffffffffffffffffffffffffffffffffffffffff16905090565b828054620002c09062000508565b90600052602060002090601f016020900481019282620002e4576000855562000330565b82601f10620002ff57805160ff191683800117855562000330565b8280016001018555821562000330579182015b828111156200032f57825182559160200191906001019062000312565b5b5090506200033f919062000343565b5090565b5b808211156200035e57600081600090555060010162000344565b5090565b60006200037962000373846200048b565b62000462565b9050828152602081018484840111156200039257600080fd5b6200039f848285620004d2565b509392505050565b600082601f830112620003b957600080fd5b8151620003cb84826020860162000362565b91505092915050565b600060208284031215620003e757600080fd5b600082015167ffffffffffffffff8111156200040257600080fd5b6200041084828501620003a7565b91505092915050565b600062000428602083620004c1565b91506200043582620005e3565b602082019050919050565b600060208201905081810360008301526200045b8162000419565b9050919050565b60006200046e62000481565b90506200047c82826200053e565b919050565b6000604051905090565b600067ffffffffffffffff821115620004a957620004a8620005a3565b5b620004b482620005d2565b9050602081019050919050565b600082825260208201905092915050565b60005b83811015620004f2578082015181840152602081019050620004d5565b8381111562000502576000848401525b50505050565b600060028204905060018216806200052157607f821691505b6020821081141562000538576200053762000574565b5b50919050565b6200054982620005d2565b810181811067ffffffffffffffff821117156200056b576200056a620005a3565b5b80604052505050565b7f4e487b7100000000000000000000000000000000000000000000000000000000600052602260045260246000fd5b7f4e487b7100000000000000000000000000000000000000000000000000000000600052604160045260246000fd5b6000601f19601f8301169050919050565b7f4f776e61626c653a2063616c6c6572206973206e6f7420746865206f776e6572600082015250565b6144aa806200061c6000396000f3fe6080604052600436106101cd5760003560e01c806355f804b3116100f757806395d89b4111610095578063c87b56dd11610064578063c87b56dd1461065a578063d547cfb714610697578063e985e9c5146106c2578063f2fde38b146106ff576101cd565b806395d89b41146105a0578063a22cb465146105cb578063b2596a67146105f4578063b88d4fde14610631576101cd565b8063715018a6116100d1578063715018a6146104f65780638462151c1461050d5780638d859f3e1461054a5780638da5cb5b14610575576101cd565b806355f804b3146104535780636352211e1461047c57806370a08231146104b9576101cd565b8063235e64ac1161016f5780633b4b13811161013e5780633b4b1381146103c75780633ccfd60b146103e357806342842e0e146103ed5780634f6ccce714610416576101cd565b8063235e64ac1461030d57806323b872dd146103365780632f745c591461035f57806332cb6b0c1461039c576101cd565b8063095ea7b3116101ab578063095ea7b31461027757806309d42b30146102a0578063144100c7146102cb57806318160ddd146102e2576101cd565b806301ffc9a7146101d257806306fdde031461020f578063081812fc1461023a575b600080fd5b3480156101de57600080fd5b506101f960048036038101906101f49190612eff565b610728565b6040516102069190613587565b60405180910390f35b34801561021b57600080fd5b506102246107a2565b60405161023191906135a2565b60405180910390f35b34801561024657600080fd5b50610261600480360381019061025c9190612f92565b610834565b60405161026e91906134fe565b60405180910390f35b34801561028357600080fd5b5061029e60048036038101906102999190612ec3565b6108b9565b005b3480156102ac57600080fd5b506102b56109d1565b6040516102c291906138c4565b60405180910390f35b3480156102d757600080fd5b506102e06109d6565b005b3480156102ee57600080fd5b506102f7610ae1565b60405161030491906138c4565b60405180910390f35b34801561031957600080fd5b50610334600480360381019061032f9190612f92565b610aee565b005b34801561034257600080fd5b5061035d60048036038101906103589190612dbd565b610bb6565b005b34801561036b57600080fd5b5061038660048036038101906103819190612ec3565b610c16565b60405161039391906138c4565b60405180910390f35b3480156103a857600080fd5b506103b1610cbb565b6040516103be91906138c4565b60405180910390f35b6103e160048036038101906103dc9190612f92565b610cc0565b005b6103eb610dfb565b005b3480156103f957600080fd5b50610414600480360381019061040f9190612dbd565b610f6f565b005b34801561042257600080fd5b5061043d60048036038101906104389190612f92565b610f8f565b60405161044a91906138c4565b60405180910390f35b34801561045f57600080fd5b5061047a60048036038101906104759190612f51565b611026565b005b34801561048857600080fd5b506104a3600480360381019061049e9190612f92565b6110bc565b6040516104b091906134fe565b60405180910390f35b3480156104c557600080fd5b506104e060048036038101906104db9190612d58565b61116e565b6040516104ed91906138c4565b60405180910390f35b34801561050257600080fd5b5061050b611226565b005b34801561051957600080fd5b50610534600480360381019061052f9190612d58565b6112ae565b6040516105419190613565565b60405180910390f35b34801561055657600080fd5b5061055f6113a8565b60405161056c91906138c4565b60405180910390f35b34801561058157600080fd5b5061058a6113b3565b60405161059791906134fe565b60405180910390f35b3480156105ac57600080fd5b506105b56113dd565b6040516105c291906135a2565b60405180910390f35b3480156105d757600080fd5b506105f260048036038101906105ed9190612e87565b61146f565b005b34801561060057600080fd5b5061061b60048036038101906106169190612f92565b611485565b60405161062891906138df565b60405180910390f35b34801561063d57600080fd5b5061065860048036038101906106539190612e0c565b6114a5565b005b34801561066657600080fd5b50610681600480360381019061067c9190612f92565b611507565b60405161068e91906135a2565b60405180910390f35b3480156106a357600080fd5b506106ac6115e1565b6040516106b991906135a2565b60405180910390f35b3480156106ce57600080fd5b506106e960048036038101906106e49190612d81565b61166f565b6040516106f69190613587565b60405180910390f35b34801561070b57600080fd5b5061072660048036038101906107219190612d58565b611703565b005b60007f780e9d63000000000000000000000000000000000000000000000000000000007bffffffffffffffffffffffffffffffffffffffffffffffffffffffff1916827bffffffffffffffffffffffffffffffffffffffffffffffffffffffff1916148061079b575061079a826117fb565b5b9050919050565b6060600080546107b190613be0565b80601f01602080910402602001604051908101604052809291908181526020018280546107dd90613be0565b801561082a5780601f106107ff5761010080835404028352916020019161082a565b820191906000526020600020905b81548152906001019060200180831161080d57829003601f168201915b5050505050905090565b600061083f826118dd565b61087e576040517f08c379a0000000000000000000000000000000000000000000000000000000008152600401610875906137c4565b60405180910390fd5b6004600083815260200190815260200160002060009054906101000a900473ffffffffffffffffffffffffffffffffffffffff169050919050565b60006108c4826110bc565b90508073ffffffffffffffffffffffffffffffffffffffff168373ffffffffffffffffffffffffffffffffffffffff161415610935576040517f08c379a000000000000000000000000000000000000000000000000000000000815260040161092c90613844565b60405180910390fd5b8073ffffffffffffffffffffffffffffffffffffffff16610954611949565b73ffffffffffffffffffffffffffffffffffffffff16148061098357506109828161097d611949565b61166f565b5b6109c2576040517f08c379a00000000000000000000000000000000000000000000000000000000081526004016109b990613704565b60405180910390fd5b6109cc8383611951565b505050565b600181565b6109de611949565b73ffffffffffffffffffffffffffffffffffffffff166109fc6113b3565b73ffffffffffffffffffffffffffffffffffffffff1614610a52576040517f08c379a0000000000000000000000000000000000000000000000000000000008152600401610a49906137e4565b60405180910390fd5b6000610a5e600b611a0a565b90506064610a76600a83611a1890919063ffffffff16565b10610ab6576040517f08c379a0000000000000000000000000000000000000000000000000000000008152600401610aad90613764565b60405180910390fd5b60005b600a811015610add57610aca611a2e565b8080610ad590613c43565b915050610ab9565b5050565b6000600880549050905090565b610af6611949565b73ffffffffffffffffffffffffffffffffffffffff16610b146113b3565b73ffffffffffffffffffffffffffffffffffffffff1614610b6a576040517f08c379a0000000000000000000000000000000000000000000000000000000008152600401610b61906137e4565b60405180910390fd5b600d6000828152602001908152602001600020600081819054906101000a900460ff1680929190610b9a90613c8c565b91906101000a81548160ff021916908360ff1602179055505050565b610bc7610bc1611949565b82611a5c565b610c06576040517f08c379a0000000000000000000000000000000000000000000000000000000008152600401610bfd90613884565b60405180910390fd5b610c11838383611b3a565b505050565b6000610c218361116e565b8210610c62576040517f08c379a0000000000000000000000000000000000000000000000000000000008152600401610c59906135e4565b60405180910390fd5b600660008473ffffffffffffffffffffffffffffffffffffffff1673ffffffffffffffffffffffffffffffffffffffff168152602001908152602001600020600083815260200190815260200160002054905092915050565b606481565b6000610ccc600b611a0a565b90506064610ce38383611a1890919063ffffffff16565b1115610d24576040517f08c379a0000000000000000000000000000000000000000000000000000000008152600401610d1b906135c4565b60405180910390fd5b600082118015610d35575060018211155b610d74576040517f08c379a0000000000000000000000000000000000000000000000000000000008152600401610d6b906136c4565b60405180910390fd5b610d8e82662386f26fc10000611d9690919063ffffffff16565b341015610dd0576040517f08c379a0000000000000000000000000000000000000000000000000000000008152600401610dc7906136a4565b60405180910390fd5b60005b82811015610df657610de3611a2e565b8080610dee90613c43565b915050610dd3565b505050565b610e03611949565b73ffffffffffffffffffffffffffffffffffffffff16610e216113b3565b73ffffffffffffffffffffffffffffffffffffffff1614610e77576040517f08c379a0000000000000000000000000000000000000000000000000000000008152600401610e6e906137e4565b60405180910390fd5b600047905060008111610ebf576040517f08c379a0000000000000000000000000000000000000000000000000000000008152600401610eb6906137a4565b60405180910390fd5b60003373ffffffffffffffffffffffffffffffffffffffff1682604051610ee5906134e9565b60006040518083038185875af1925050503d8060008114610f22576040519150601f19603f3d011682016040523d82523d6000602084013e610f27565b606091505b5050905080610f6b576040517f08c379a0000000000000000000000000000000000000000000000000000000008152600401610f6290613864565b60405180910390fd5b5050565b610f8a838383604051806020016040528060008152506114a5565b505050565b6000610f99610ae1565b8210610fda576040517f08c379a0000000000000000000000000000000000000000000000000000000008152600401610fd1906138a4565b60405180910390fd5b60088281548110611014577f4e487b7100000000000000000000000000000000000000000000000000000000600052603260045260246000fd5b90600052602060002001549050919050565b61102e611949565b73ffffffffffffffffffffffffffffffffffffffff1661104c6113b3565b73ffffffffffffffffffffffffffffffffffffffff16146110a2576040517f08c379a0000000000000000000000000000000000000000000000000000000008152600401611099906137e4565b60405180910390fd5b80600c90805190602001906110b8929190612b7c565b5050565b6000806002600084815260200190815260200160002060009054906101000a900473ffffffffffffffffffffffffffffffffffffffff169050600073ffffffffffffffffffffffffffffffffffffffff168173ffffffffffffffffffffffffffffffffffffffff161415611165576040517f08c379a000000000000000000000000000000000000000000000000000000000815260040161115c90613744565b60405180910390fd5b80915050919050565b60008073ffffffffffffffffffffffffffffffffffffffff168273ffffffffffffffffffffffffffffffffffffffff1614156111df576040517f08c379a00000000000000000000000000000000000000000000000000000000081526004016111d690613724565b60405180910390fd5b600360008373ffffffffffffffffffffffffffffffffffffffff1673ffffffffffffffffffffffffffffffffffffffff168152602001908152602001600020549050919050565b61122e611949565b73ffffffffffffffffffffffffffffffffffffffff1661124c6113b3565b73ffffffffffffffffffffffffffffffffffffffff16146112a2576040517f08c379a0000000000000000000000000000000000000000000000000000000008152600401611299906137e4565b60405180910390fd5b6112ac6000611dac565b565b606060006112bb8361116e565b905060008167ffffffffffffffff8111156112ff577f4e487b7100000000000000000000000000000000000000000000000000000000600052604160045260246000fd5b60405190808252806020026020018201604052801561132d5781602001602082028036833780820191505090505b50905060005b8281101561139d576113458582610c16565b82828151811061137e577f4e487b7100000000000000000000000000000000000000000000000000000000600052603260045260246000fd5b602002602001018181525050808061139590613c43565b915050611333565b508092505050919050565b662386f26fc1000081565b6000600a60009054906101000a900473ffffffffffffffffffffffffffffffffffffffff16905090565b6060600180546113ec90613be0565b80601f016020809104026020016040519081016040528092919081815260200182805461141890613be0565b80156114655780601f1061143a57610100808354040283529160200191611465565b820191906000526020600020905b81548152906001019060200180831161144857829003601f168201915b5050505050905090565b61148161147a611949565b8383611e72565b5050565b600d6020528060005260406000206000915054906101000a900460ff1681565b6114b66114b0611949565b83611a5c565b6114f5576040517f08c379a00000000000000000000000000000000000000000000000000000000081526004016114ec90613884565b60405180910390fd5b61150184848484611fdf565b50505050565b6060611512826118dd565b611551576040517f08c379a000000000000000000000000000000000000000000000000000000000815260040161154890613824565b60405180910390fd5b600061155b61203b565b9050600081611569856120cd565b611595600d600088815260200190815260200160002060009054906101000a900460ff1660ff166120cd565b6040516020016115a7939291906134ad565b604051602081830303815290604052905060008251116115d657604051806020016040528060008152506115d8565b805b92505050919050565b600c80546115ee90613be0565b80601f016020809104026020016040519081016040528092919081815260200182805461161a90613be0565b80156116675780601f1061163c57610100808354040283529160200191611667565b820191906000526020600020905b81548152906001019060200180831161164a57829003601f168201915b505050505081565b6000600560008473ffffffffffffffffffffffffffffffffffffffff1673ffffffffffffffffffffffffffffffffffffffff16815260200190815260200160002060008373ffffffffffffffffffffffffffffffffffffffff1673ffffffffffffffffffffffffffffffffffffffff16815260200190815260200160002060009054906101000a900460ff16905092915050565b61170b611949565b73ffffffffffffffffffffffffffffffffffffffff166117296113b3565b73ffffffffffffffffffffffffffffffffffffffff161461177f576040517f08c379a0000000000000000000000000000000000000000000000000000000008152600401611776906137e4565b60405180910390fd5b600073ffffffffffffffffffffffffffffffffffffffff168173ffffffffffffffffffffffffffffffffffffffff1614156117ef576040517f08c379a00000000000000000000000000000000000000000000000000000000081526004016117e690613624565b60405180910390fd5b6117f881611dac565b50565b60007f80ac58cd000000000000000000000000000000000000000000000000000000007bffffffffffffffffffffffffffffffffffffffffffffffffffffffff1916827bffffffffffffffffffffffffffffffffffffffffffffffffffffffff191614806118c657507f5b5e139f000000000000000000000000000000000000000000000000000000007bffffffffffffffffffffffffffffffffffffffffffffffffffffffff1916827bffffffffffffffffffffffffffffffffffffffffffffffffffffffff1916145b806118d657506118d58261227a565b5b9050919050565b60008073ffffffffffffffffffffffffffffffffffffffff166002600084815260200190815260200160002060009054906101000a900473ffffffffffffffffffffffffffffffffffffffff1673ffffffffffffffffffffffffffffffffffffffff1614159050919050565b600033905090565b816004600083815260200190815260200160002060006101000a81548173ffffffffffffffffffffffffffffffffffffffff021916908373ffffffffffffffffffffffffffffffffffffffff160217905550808273ffffffffffffffffffffffffffffffffffffffff166119c4836110bc565b73ffffffffffffffffffffffffffffffffffffffff167f8c5be1e5ebec7d5bd14f71427d1e84f3dd0314c0f7b2291e5b200ac8c7c3b92560405160405180910390a45050565b600081600001549050919050565b60008183611a269190613a08565b905092915050565b6000611a3a600b611a0a565b9050611a4633826122e4565b611a4f81610aee565b611a59600b612302565b50565b6000611a67826118dd565b611aa6576040517f08c379a0000000000000000000000000000000000000000000000000000000008152600401611a9d906136e4565b60405180910390fd5b6000611ab1836110bc565b90508073ffffffffffffffffffffffffffffffffffffffff168473ffffffffffffffffffffffffffffffffffffffff161480611b2057508373ffffffffffffffffffffffffffffffffffffffff16611b0884610834565b73ffffffffffffffffffffffffffffffffffffffff16145b80611b315750611b30818561166f565b5b91505092915050565b8273ffffffffffffffffffffffffffffffffffffffff16611b5a826110bc565b73ffffffffffffffffffffffffffffffffffffffff1614611bb0576040517f08c379a0000000000000000000000000000000000000000000000000000000008152600401611ba790613804565b60405180910390fd5b600073ffffffffffffffffffffffffffffffffffffffff168273ffffffffffffffffffffffffffffffffffffffff161415611c20576040517f08c379a0000000000000000000000000000000000000000000000000000000008152600401611c1790613664565b60405180910390fd5b611c2b838383612318565b611c36600082611951565b6001600360008573ffffffffffffffffffffffffffffffffffffffff1673ffffffffffffffffffffffffffffffffffffffff1681526020019081526020016000206000828254611c869190613ae9565b925050819055506001600360008473ffffffffffffffffffffffffffffffffffffffff1673ffffffffffffffffffffffffffffffffffffffff1681526020019081526020016000206000828254611cdd9190613a08565b92505081905550816002600083815260200190815260200160002060006101000a81548173ffffffffffffffffffffffffffffffffffffffff021916908373ffffffffffffffffffffffffffffffffffffffff160217905550808273ffffffffffffffffffffffffffffffffffffffff168473ffffffffffffffffffffffffffffffffffffffff167fddf252ad1be2c89b69c2b068fc378daa952ba7f163c4a11628f55a4df523b3ef60405160405180910390a4505050565b60008183611da49190613a8f565b905092915050565b6000600a60009054906101000a900473ffffffffffffffffffffffffffffffffffffffff16905081600a60006101000a81548173ffffffffffffffffffffffffffffffffffffffff021916908373ffffffffffffffffffffffffffffffffffffffff1602179055508173ffffffffffffffffffffffffffffffffffffffff168173ffffffffffffffffffffffffffffffffffffffff167f8be0079c531659141344cd1fd0a4f28419497f9722a3daafe3b4186f6b6457e060405160405180910390a35050565b8173ffffffffffffffffffffffffffffffffffffffff168373ffffffffffffffffffffffffffffffffffffffff161415611ee1576040517f08c379a0000000000000000000000000000000000000000000000000000000008152600401611ed890613684565b60405180910390fd5b80600560008573ffffffffffffffffffffffffffffffffffffffff1673ffffffffffffffffffffffffffffffffffffffff16815260200190815260200160002060008473ffffffffffffffffffffffffffffffffffffffff1673ffffffffffffffffffffffffffffffffffffffff16815260200190815260200160002060006101000a81548160ff0219169083151502179055508173ffffffffffffffffffffffffffffffffffffffff168373ffffffffffffffffffffffffffffffffffffffff167f17307eab39ab6107e8899845ad3d59bd9653f200f220920489ca2b5937696c3183604051611fd29190613587565b60405180910390a3505050565b611fea848484611b3a565b611ff68484848461242c565b612035576040517f08c379a000000000000000000000000000000000000000000000000000000000815260040161202c90613604565b60405180910390fd5b50505050565b6060600c805461204a90613be0565b80601f016020809104026020016040519081016040528092919081815260200182805461207690613be0565b80156120c35780601f10612098576101008083540402835291602001916120c3565b820191906000526020600020905b8154815290600101906020018083116120a657829003601f168201915b5050505050905090565b60606000821415612115576040518060400160405280600181526020017f30000000000000000000000000000000000000000000000000000000000000008152509050612275565b600082905060005b6000821461214757808061213090613c43565b915050600a826121409190613a5e565b915061211d565b60008167ffffffffffffffff811115612189577f4e487b7100000000000000000000000000000000000000000000000000000000600052604160045260246000fd5b6040519080825280601f01601f1916602001820160405280156121bb5781602001600182028036833780820191505090505b5090505b6000851461226e576001826121d49190613ae9565b9150600a856121e39190613cb6565b60306121ef9190613a08565b60f81b81838151811061222b577f4e487b7100000000000000000000000000000000000000000000000000000000600052603260045260246000fd5b60200101907effffffffffffffffffffffffffffffffffffffffffffffffffffffffffffff1916908160001a905350600a856122679190613a5e565b94506121bf565b8093505050505b919050565b60007f01ffc9a7000000000000000000000000000000000000000000000000000000007bffffffffffffffffffffffffffffffffffffffffffffffffffffffff1916827bffffffffffffffffffffffffffffffffffffffffffffffffffffffff1916149050919050565b6122fe8282604051806020016040528060008152506125c3565b5050565b6001816000016000828254019250508190555050565b61232383838361261e565b600073ffffffffffffffffffffffffffffffffffffffff168373ffffffffffffffffffffffffffffffffffffffff1614156123665761236181612623565b6123a5565b8173ffffffffffffffffffffffffffffffffffffffff168373ffffffffffffffffffffffffffffffffffffffff16146123a4576123a3838261266c565b5b5b600073ffffffffffffffffffffffffffffffffffffffff168273ffffffffffffffffffffffffffffffffffffffff1614156123e8576123e3816127d9565b612427565b8273ffffffffffffffffffffffffffffffffffffffff168273ffffffffffffffffffffffffffffffffffffffff161461242657612425828261291c565b5b5b505050565b600061244d8473ffffffffffffffffffffffffffffffffffffffff1661299b565b156125b6578373ffffffffffffffffffffffffffffffffffffffff1663150b7a02612476611949565b8786866040518563ffffffff1660e01b81526004016124989493929190613519565b602060405180830381600087803b1580156124b257600080fd5b505af19250505080156124e357506040513d601f19601f820116820180604052508101906124e09190612f28565b60015b612566573d8060008114612513576040519150601f19603f3d011682016040523d82523d6000602084013e612518565b606091505b5060008151141561255e576040517f08c379a000000000000000000000000000000000000000000000000000000000815260040161255590613604565b60405180910390fd5b805181602001fd5b63150b7a0260e01b7bffffffffffffffffffffffffffffffffffffffffffffffffffffffff1916817bffffffffffffffffffffffffffffffffffffffffffffffffffffffff1916149150506125bb565b600190505b949350505050565b6125cd83836129ae565b6125da600084848461242c565b612619576040517f08c379a000000000000000000000000000000000000000000000000000000000815260040161261090613604565b60405180910390fd5b505050565b505050565b6008805490506009600083815260200190815260200160002081905550600881908060018154018082558091505060019003906000526020600020016000909190919091505550565b600060016126798461116e565b6126839190613ae9565b9050600060076000848152602001908152602001600020549050818114612768576000600660008673ffffffffffffffffffffffffffffffffffffffff1673ffffffffffffffffffffffffffffffffffffffff168152602001908152602001600020600084815260200190815260200160002054905080600660008773ffffffffffffffffffffffffffffffffffffffff1673ffffffffffffffffffffffffffffffffffffffff168152602001908152602001600020600084815260200190815260200160002081905550816007600083815260200190815260200160002081905550505b6007600084815260200190815260200160002060009055600660008573ffffffffffffffffffffffffffffffffffffffff1673ffffffffffffffffffffffffffffffffffffffff16815260200190815260200160002060008381526020019081526020016000206000905550505050565b600060016008805490506127ed9190613ae9565b9050600060096000848152602001908152602001600020549050600060088381548110612843577f4e487b7100000000000000000000000000000000000000000000000000000000600052603260045260246000fd5b90600052602060002001549050806008838154811061288b577f4e487b7100000000000000000000000000000000000000000000000000000000600052603260045260246000fd5b906000526020600020018190555081600960008381526020019081526020016000208190555060096000858152602001908152602001600020600090556008805480612900577f4e487b7100000000000000000000000000000000000000000000000000000000600052603160045260246000fd5b6001900381819060005260206000200160009055905550505050565b60006129278361116e565b905081600660008573ffffffffffffffffffffffffffffffffffffffff1673ffffffffffffffffffffffffffffffffffffffff168152602001908152602001600020600083815260200190815260200160002081905550806007600084815260200190815260200160002081905550505050565b600080823b905060008111915050919050565b600073ffffffffffffffffffffffffffffffffffffffff168273ffffffffffffffffffffffffffffffffffffffff161415612a1e576040517f08c379a0000000000000000000000000000000000000000000000000000000008152600401612a1590613784565b60405180910390fd5b612a27816118dd565b15612a67576040517f08c379a0000000000000000000000000000000000000000000000000000000008152600401612a5e90613644565b60405180910390fd5b612a7360008383612318565b6001600360008473ffffffffffffffffffffffffffffffffffffffff1673ffffffffffffffffffffffffffffffffffffffff1681526020019081526020016000206000828254612ac39190613a08565b92505081905550816002600083815260200190815260200160002060006101000a81548173ffffffffffffffffffffffffffffffffffffffff021916908373ffffffffffffffffffffffffffffffffffffffff160217905550808273ffffffffffffffffffffffffffffffffffffffff16600073ffffffffffffffffffffffffffffffffffffffff167fddf252ad1be2c89b69c2b068fc378daa952ba7f163c4a11628f55a4df523b3ef60405160405180910390a45050565b828054612b8890613be0565b90600052602060002090601f016020900481019282612baa5760008555612bf1565b82601f10612bc357805160ff1916838001178555612bf1565b82800160010185558215612bf1579182015b82811115612bf0578251825591602001919060010190612bd5565b5b509050612bfe9190612c02565b5090565b5b80821115612c1b576000816000905550600101612c03565b5090565b6000612c32612c2d8461391f565b6138fa565b905082815260208101848484011115612c4a57600080fd5b612c55848285613b9e565b509392505050565b6000612c70612c6b84613950565b6138fa565b905082815260208101848484011115612c8857600080fd5b612c93848285613b9e565b509392505050565b600081359050612caa81614418565b92915050565b600081359050612cbf8161442f565b92915050565b600081359050612cd481614446565b92915050565b600081519050612ce981614446565b92915050565b600082601f830112612d0057600080fd5b8135612d10848260208601612c1f565b91505092915050565b600082601f830112612d2a57600080fd5b8135612d3a848260208601612c5d565b91505092915050565b600081359050612d528161445d565b92915050565b600060208284031215612d6a57600080fd5b6000612d7884828501612c9b565b91505092915050565b60008060408385031215612d9457600080fd5b6000612da285828601612c9b565b9250506020612db385828601612c9b565b9150509250929050565b600080600060608486031215612dd257600080fd5b6000612de086828701612c9b565b9350506020612df186828701612c9b565b9250506040612e0286828701612d43565b9150509250925092565b60008060008060808587031215612e2257600080fd5b6000612e3087828801612c9b565b9450506020612e4187828801612c9b565b9350506040612e5287828801612d43565b925050606085013567ffffffffffffffff811115612e6f57600080fd5b612e7b87828801612cef565b91505092959194509250565b60008060408385031215612e9a57600080fd5b6000612ea885828601612c9b565b9250506020612eb985828601612cb0565b9150509250929050565b60008060408385031215612ed657600080fd5b6000612ee485828601612c9b565b9250506020612ef585828601612d43565b9150509250929050565b600060208284031215612f1157600080fd5b6000612f1f84828501612cc5565b91505092915050565b600060208284031215612f3a57600080fd5b6000612f4884828501612cda565b91505092915050565b600060208284031215612f6357600080fd5b600082013567ffffffffffffffff811115612f7d57600080fd5b612f8984828501612d19565b91505092915050565b600060208284031215612fa457600080fd5b6000612fb284828501612d43565b91505092915050565b6000612fc78383613480565b60208301905092915050565b612fdc81613b1d565b82525050565b6000612fed82613991565b612ff781856139bf565b935061300283613981565b8060005b8381101561303357815161301a8882612fbb565b9750613025836139b2565b925050600181019050613006565b5085935050505092915050565b61304981613b2f565b82525050565b600061305a8261399c565b61306481856139d0565b9350613074818560208601613bad565b61307d81613da3565b840191505092915050565b6000613093826139a7565b61309d81856139ec565b93506130ad818560208601613bad565b6130b681613da3565b840191505092915050565b60006130cc826139a7565b6130d681856139fd565b93506130e6818560208601613bad565b80840191505092915050565b60006130ff6010836139ec565b915061310a82613db4565b602082019050919050565b6000613122602b836139ec565b915061312d82613ddd565b604082019050919050565b60006131456032836139ec565b915061315082613e2c565b604082019050919050565b60006131686026836139ec565b915061317382613e7b565b604082019050919050565b600061318b601c836139ec565b915061319682613eca565b602082019050919050565b60006131ae6024836139ec565b91506131b982613ef3565b604082019050919050565b60006131d16019836139ec565b91506131dc82613f42565b602082019050919050565b60006131f46022836139ec565b91506131ff82613f6b565b604082019050919050565b60006132176025836139ec565b915061322282613fba565b604082019050919050565b600061323a602c836139ec565b915061324582614009565b604082019050919050565b600061325d6038836139ec565b915061326882614058565b604082019050919050565b6000613280602a836139ec565b915061328b826140a7565b604082019050919050565b60006132a36029836139ec565b91506132ae826140f6565b604082019050919050565b60006132c6600f836139ec565b91506132d182614145565b602082019050919050565b60006132e96020836139ec565b91506132f48261416e565b602082019050919050565b600061330c6019836139ec565b915061331782614197565b602082019050919050565b600061332f602c836139ec565b915061333a826141c0565b604082019050919050565b60006133526020836139ec565b915061335d8261420f565b602082019050919050565b60006133756029836139ec565b915061338082614238565b604082019050919050565b6000613398602f836139ec565b91506133a382614287565b604082019050919050565b60006133bb6021836139ec565b91506133c6826142d6565b604082019050919050565b60006133de6000836139e1565b91506133e982614325565b600082019050919050565b60006134016010836139ec565b915061340c82614328565b602082019050919050565b60006134246031836139ec565b915061342f82614351565b604082019050919050565b6000613447602c836139ec565b9150613452826143a0565b604082019050919050565b600061346a6001836139fd565b9150613475826143ef565b600182019050919050565b61348981613b87565b82525050565b61349881613b87565b82525050565b6134a781613b91565b82525050565b60006134b982866130c1565b91506134c582856130c1565b91506134d08261345d565b91506134dc82846130c1565b9150819050949350505050565b60006134f4826133d1565b9150819050919050565b60006020820190506135136000830184612fd3565b92915050565b600060808201905061352e6000830187612fd3565b61353b6020830186612fd3565b613548604083018561348f565b818103606083015261355a818461304f565b905095945050505050565b6000602082019050818103600083015261357f8184612fe2565b905092915050565b600060208201905061359c6000830184613040565b92915050565b600060208201905081810360008301526135bc8184613088565b905092915050565b600060208201905081810360008301526135dd816130f2565b9050919050565b600060208201905081810360008301526135fd81613115565b9050919050565b6000602082019050818103600083015261361d81613138565b9050919050565b6000602082019050818103600083015261363d8161315b565b9050919050565b6000602082019050818103600083015261365d8161317e565b9050919050565b6000602082019050818103600083015261367d816131a1565b9050919050565b6000602082019050818103600083015261369d816131c4565b9050919050565b600060208201905081810360008301526136bd816131e7565b9050919050565b600060208201905081810360008301526136dd8161320a565b9050919050565b600060208201905081810360008301526136fd8161322d565b9050919050565b6000602082019050818103600083015261371d81613250565b9050919050565b6000602082019050818103600083015261373d81613273565b9050919050565b6000602082019050818103600083015261375d81613296565b9050919050565b6000602082019050818103600083015261377d816132b9565b9050919050565b6000602082019050818103600083015261379d816132dc565b9050919050565b600060208201905081810360008301526137bd816132ff565b9050919050565b600060208201905081810360008301526137dd81613322565b9050919050565b600060208201905081810360008301526137fd81613345565b9050919050565b6000602082019050818103600083015261381d81613368565b9050919050565b6000602082019050818103600083015261383d8161338b565b9050919050565b6000602082019050818103600083015261385d816133ae565b9050919050565b6000602082019050818103600083015261387d816133f4565b9050919050565b6000602082019050818103600083015261389d81613417565b9050919050565b600060208201905081810360008301526138bd8161343a565b9050919050565b60006020820190506138d9600083018461348f565b92915050565b60006020820190506138f4600083018461349e565b92915050565b6000613904613915565b90506139108282613c12565b919050565b6000604051905090565b600067ffffffffffffffff82111561393a57613939613d74565b5b61394382613da3565b9050602081019050919050565b600067ffffffffffffffff82111561396b5761396a613d74565b5b61397482613da3565b9050602081019050919050565b6000819050602082019050919050565b600081519050919050565b600081519050919050565b600081519050919050565b6000602082019050919050565b600082825260208201905092915050565b600082825260208201905092915050565b600081905092915050565b600082825260208201905092915050565b600081905092915050565b6000613a1382613b87565b9150613a1e83613b87565b9250827fffffffffffffffffffffffffffffffffffffffffffffffffffffffffffffffff03821115613a5357613a52613ce7565b5b828201905092915050565b6000613a6982613b87565b9150613a7483613b87565b925082613a8457613a83613d16565b5b828204905092915050565b6000613a9a82613b87565b9150613aa583613b87565b9250817fffffffffffffffffffffffffffffffffffffffffffffffffffffffffffffffff0483118215151615613ade57613add613ce7565b5b828202905092915050565b6000613af482613b87565b9150613aff83613b87565b925082821015613b1257613b11613ce7565b5b828203905092915050565b6000613b2882613b67565b9050919050565b60008115159050919050565b60007fffffffff0000000000000000000000000000000000000000000000000000000082169050919050565b600073ffffffffffffffffffffffffffffffffffffffff82169050919050565b6000819050919050565b600060ff82169050919050565b82818337600083830152505050565b60005b83811015613bcb578082015181840152602081019050613bb0565b83811115613bda576000848401525b50505050565b60006002820490506001821680613bf857607f821691505b60208210811415613c0c57613c0b613d45565b5b50919050565b613c1b82613da3565b810181811067ffffffffffffffff82111715613c3a57613c39613d74565b5b80604052505050565b6000613c4e82613b87565b91507fffffffffffffffffffffffffffffffffffffffffffffffffffffffffffffffff821415613c8157613c80613ce7565b5b600182019050919050565b6000613c9782613b91565b915060ff821415613cab57613caa613ce7565b5b600182019050919050565b6000613cc182613b87565b9150613ccc83613b87565b925082613cdc57613cdb613d16565b5b828206905092915050565b7f4e487b7100000000000000000000000000000000000000000000000000000000600052601160045260246000fd5b7f4e487b7100000000000000000000000000000000000000000000000000000000600052601260045260246000fd5b7f4e487b7100000000000000000000000000000000000000000000000000000000600052602260045260246000fd5b7f4e487b7100000000000000000000000000000000000000000000000000000000600052604160045260246000fd5b6000601f19601f8301169050919050565b7f4e6f7420656e6f756768204e4654732100000000000000000000000000000000600082015250565b7f455243373231456e756d657261626c653a206f776e657220696e646578206f7560008201527f74206f6620626f756e6473000000000000000000000000000000000000000000602082015250565b7f4552433732313a207472616e7366657220746f206e6f6e20455243373231526560008201527f63656976657220696d706c656d656e7465720000000000000000000000000000602082015250565b7f4f776e61626c653a206e6577206f776e657220697320746865207a65726f206160008201527f6464726573730000000000000000000000000000000000000000000000000000602082015250565b7f4552433732313a20746f6b656e20616c7265616479206d696e74656400000000600082015250565b7f4552433732313a207472616e7366657220746f20746865207a65726f2061646460008201527f7265737300000000000000000000000000000000000000000000000000000000602082015250565b7f4552433732313a20617070726f766520746f2063616c6c657200000000000000600082015250565b7f4e6f7420656e6f75676820657468657220746f207075726368617365204e465460008201527f732e000000000000000000000000000000000000000000000000000000000000602082015250565b7f43616e6e6f74206d696e7420737065636966696564206e756d626572206f662060008201527f4e4654732e000000000000000000000000000000000000000000000000000000602082015250565b7f4552433732313a206f70657261746f7220717565727920666f72206e6f6e657860008201527f697374656e7420746f6b656e0000000000000000000000000000000000000000602082015250565b7f4552433732313a20617070726f76652063616c6c6572206973206e6f74206f7760008201527f6e6572206e6f7220617070726f76656420666f7220616c6c0000000000000000602082015250565b7f4552433732313a2062616c616e636520717565727920666f7220746865207a6560008201527f726f206164647265737300000000000000000000000000000000000000000000602082015250565b7f4552433732313a206f776e657220717565727920666f72206e6f6e657869737460008201527f656e7420746f6b656e0000000000000000000000000000000000000000000000602082015250565b7f4e6f7420656e6f756768204e4654730000000000000000000000000000000000600082015250565b7f4552433732313a206d696e7420746f20746865207a65726f2061646472657373600082015250565b7f4e6f206574686572206c65667420746f20776974686472617700000000000000600082015250565b7f4552433732313a20617070726f76656420717565727920666f72206e6f6e657860008201527f697374656e7420746f6b656e0000000000000000000000000000000000000000602082015250565b7f4f776e61626c653a2063616c6c6572206973206e6f7420746865206f776e6572600082015250565b7f4552433732313a207472616e73666572206f6620746f6b656e2074686174206960008201527f73206e6f74206f776e0000000000000000000000000000000000000000000000602082015250565b7f4552433732314d657461646174613a2055524920717565727920666f72206e6f60008201527f6e6578697374656e7420746f6b656e0000000000000000000000000000000000602082015250565b7f4552433732313a20617070726f76616c20746f2063757272656e74206f776e6560008201527f7200000000000000000000000000000000000000000000000000000000000000602082015250565b50565b7f5472616e73666572206661696c65642e00000000000000000000000000000000600082015250565b7f4552433732313a207472616e736665722063616c6c6572206973206e6f74206f60008201527f776e6572206e6f7220617070726f766564000000000000000000000000000000602082015250565b7f455243373231456e756d657261626c653a20676c6f62616c20696e646578206f60008201527f7574206f6620626f756e64730000000000000000000000000000000000000000602082015250565b7f2f00000000000000000000000000000000000000000000000000000000000000600082015250565b61442181613b1d565b811461442c57600080fd5b50565b61443881613b2f565b811461444357600080fd5b50565b61444f81613b3b565b811461445a57600080fd5b50565b61446681613b87565b811461447157600080fd5b5056fea264697066735822122090335f381d0c995f04e0dc03bca997643d55738997dba6149f9f46b5d9dcf31264736f6c63430008040033",
    "linkReferences": {},
    "deployedLinkReferences": {}
}